{
  "contractName": "CourseMarketplace",
  "abi": [
    {
      "inputs": [],
      "stateMutability": "nonpayable",
      "type": "constructor"
    },
    {
      "inputs": [],
      "name": "CourseHasOwner",
      "type": "error"
    },
    {
      "inputs": [],
      "name": "OnlyOwner",
      "type": "error"
    },
    {
      "inputs": [
        {
          "internalType": "bytes16",
          "name": "courseId",
          "type": "bytes16"
        },
        {
          "internalType": "bytes32",
          "name": "proof",
          "type": "bytes32"
        }
      ],
      "name": "purchaseCourse",
      "outputs": [],
      "stateMutability": "payable",
      "type": "function",
      "payable": true
    },
    {
      "inputs": [
        {
          "internalType": "address",
          "name": "newOwner",
          "type": "address"
        }
      ],
      "name": "transferOwnership",
      "outputs": [
        {
          "internalType": "address",
          "name": "",
          "type": "address"
        }
      ],
      "stateMutability": "nonpayable",
      "type": "function"
    },
    {
      "inputs": [],
      "name": "getCourseCount",
      "outputs": [
        {
          "internalType": "uint256",
          "name": "",
          "type": "uint256"
        }
      ],
      "stateMutability": "view",
      "type": "function",
      "constant": true
    },
    {
      "inputs": [
        {
          "internalType": "uint256",
          "name": "index",
          "type": "uint256"
        }
      ],
      "name": "getCourseHashAtIndex",
      "outputs": [
        {
          "internalType": "bytes32",
          "name": "",
          "type": "bytes32"
        }
      ],
      "stateMutability": "view",
      "type": "function",
      "constant": true
    },
    {
      "inputs": [
        {
          "internalType": "bytes32",
          "name": "courseHash",
          "type": "bytes32"
        }
      ],
      "name": "getCourseByHash",
      "outputs": [
        {
          "components": [
            {
              "internalType": "uint256",
              "name": "id",
              "type": "uint256"
            },
            {
              "internalType": "uint256",
              "name": "price",
              "type": "uint256"
            },
            {
              "internalType": "bytes32",
              "name": "proof",
              "type": "bytes32"
            },
            {
              "internalType": "address",
              "name": "owner",
              "type": "address"
            },
            {
              "internalType": "enum CourseMarketplace.State",
              "name": "state",
              "type": "uint8"
            }
          ],
          "internalType": "struct CourseMarketplace.Course",
          "name": "",
          "type": "tuple"
        }
      ],
      "stateMutability": "view",
      "type": "function",
      "constant": true
    },
    {
      "inputs": [],
      "name": "getContractOwner",
      "outputs": [
        {
          "internalType": "address",
          "name": "",
          "type": "address"
        }
      ],
      "stateMutability": "view",
      "type": "function",
      "constant": true
    }
  ],
  "bytecode": "0x608060405234801561001057600080fd5b506100203361002560201b60201c565b610068565b806000806101000a81548173ffffffffffffffffffffffffffffffffffffffff021916908373ffffffffffffffffffffffffffffffffffffffff16021790555050565b610aac806100776000396000f3fe6080604052600436106100555760003560e01c8063442890d51461005a57806362e4e6ac146100855780636d11290b146100c257806396cfda06146100ff578063d76821cb1461012a578063f2fde38b14610146575b600080fd5b34801561006657600080fd5b5061006f610183565b60405161007c9190610618565b60405180910390f35b34801561009157600080fd5b506100ac60048036038101906100a7919061066e565b6101ac565b6040516100b991906107b1565b60405180910390f35b3480156100ce57600080fd5b506100e960048036038101906100e491906107f8565b610288565b6040516100f69190610834565b60405180910390f35b34801561010b57600080fd5b506101146102a5565b604051610121919061085e565b60405180910390f35b610144600480360381019061013f91906108d1565b6102af565b005b34801561015257600080fd5b5061016d6004803603810190610168919061093d565b610450565b60405161017a9190610618565b60405180910390f35b60008060009054906101000a900473ffffffffffffffffffffffffffffffffffffffff16905090565b6101b461057d565b600160008381526020019081526020016000206040518060a00160405290816000820154815260200160018201548152602001600282015481526020016003820160009054906101000a900473ffffffffffffffffffffffffffffffffffffffff1673ffffffffffffffffffffffffffffffffffffffff1673ffffffffffffffffffffffffffffffffffffffff1681526020016003820160149054906101000a900460ff16600281111561026b5761026a6106d2565b5b600281111561027d5761027c6106d2565b5b815250509050919050565b600060026000838152602001908152602001600020549050919050565b6000600354905090565b600082336040516020016102c49291906109d3565b6040516020818303038152906040528051906020012090506102e5816104cc565b1561031c576040517fb0fc2d9700000000000000000000000000000000000000000000000000000000815260040160405180910390fd5b60006003600081548092919061033190610a2e565b9190505590508160026000838152602001908152602001600020819055506040518060a001604052808281526020013481526020018481526020013373ffffffffffffffffffffffffffffffffffffffff1681526020016000600281111561039c5761039b6106d2565b5b8152506001600084815260200190815260200160002060008201518160000155602082015181600101556040820151816002015560608201518160030160006101000a81548173ffffffffffffffffffffffffffffffffffffffff021916908373ffffffffffffffffffffffffffffffffffffffff16021790555060808201518160030160146101000a81548160ff02191690836002811115610442576104416106d2565b5b021790555090505050505050565b600061045a610183565b73ffffffffffffffffffffffffffffffffffffffff163373ffffffffffffffffffffffffffffffffffffffff16146104be576040517f5fc483c500000000000000000000000000000000000000000000000000000000815260040160405180910390fd5b6104c78261053a565b919050565b60003373ffffffffffffffffffffffffffffffffffffffff166001600084815260200190815260200160002060030160009054906101000a900473ffffffffffffffffffffffffffffffffffffffff1673ffffffffffffffffffffffffffffffffffffffff16149050919050565b806000806101000a81548173ffffffffffffffffffffffffffffffffffffffff021916908373ffffffffffffffffffffffffffffffffffffffff16021790555050565b6040518060a00160405280600081526020016000815260200160008019168152602001600073ffffffffffffffffffffffffffffffffffffffff168152602001600060028111156105d1576105d06106d2565b5b81525090565b600073ffffffffffffffffffffffffffffffffffffffff82169050919050565b6000610602826105d7565b9050919050565b610612816105f7565b82525050565b600060208201905061062d6000830184610609565b92915050565b600080fd5b6000819050919050565b61064b81610638565b811461065657600080fd5b50565b60008135905061066881610642565b92915050565b60006020828403121561068457610683610633565b5b600061069284828501610659565b91505092915050565b6000819050919050565b6106ae8161069b565b82525050565b6106bd81610638565b82525050565b6106cc816105f7565b82525050565b7f4e487b7100000000000000000000000000000000000000000000000000000000600052602160045260246000fd5b60038110610712576107116106d2565b5b50565b600081905061072382610701565b919050565b600061073382610715565b9050919050565b61074381610728565b82525050565b60a08201600082015161075f60008501826106a5565b50602082015161077260208501826106a5565b50604082015161078560408501826106b4565b50606082015161079860608501826106c3565b5060808201516107ab608085018261073a565b50505050565b600060a0820190506107c66000830184610749565b92915050565b6107d58161069b565b81146107e057600080fd5b50565b6000813590506107f2816107cc565b92915050565b60006020828403121561080e5761080d610633565b5b600061081c848285016107e3565b91505092915050565b61082e81610638565b82525050565b60006020820190506108496000830184610825565b92915050565b6108588161069b565b82525050565b6000602082019050610873600083018461084f565b92915050565b60007fffffffffffffffffffffffffffffffff0000000000000000000000000000000082169050919050565b6108ae81610879565b81146108b957600080fd5b50565b6000813590506108cb816108a5565b92915050565b600080604083850312156108e8576108e7610633565b5b60006108f6858286016108bc565b925050602061090785828601610659565b9150509250929050565b61091a816105f7565b811461092557600080fd5b50565b60008135905061093781610911565b92915050565b60006020828403121561095357610952610633565b5b600061096184828501610928565b91505092915050565b6000819050919050565b61098561098082610879565b61096a565b82525050565b60008160601b9050919050565b60006109a38261098b565b9050919050565b60006109b582610998565b9050919050565b6109cd6109c8826105f7565b6109aa565b82525050565b60006109df8285610974565b6010820191506109ef82846109bc565b6014820191508190509392505050565b7f4e487b7100000000000000000000000000000000000000000000000000000000600052601160045260246000fd5b6000610a398261069b565b91507fffffffffffffffffffffffffffffffffffffffffffffffffffffffffffffffff8203610a6b57610a6a6109ff565b5b60018201905091905056fea2646970667358221220c6e959ec0b3ccf56dfb795d2395ccf3069c9dd46e528be5bb9ed9e87c491f70a64736f6c63430008110033",
  "immutableReferences": {},
  "source": "//SPDX-License-Identifier: MIT\r\npragma solidity ^0.8.17;\r\n\r\ncontract CourseMarketplace {\r\n    enum State {\r\n        Purchased,\r\n        Activated,\r\n        Deactivated\r\n    }\r\n\r\n    struct Course {\r\n        uint256 id;\r\n        uint256 price;\r\n        bytes32 proof; //unique to the user\r\n        address owner;\r\n        State state;\r\n    }\r\n\r\n    address payable private admin;\r\n\r\n    constructor() {\r\n        setContractOwner(msg.sender);\r\n    }\r\n\r\n    mapping(bytes32 => Course) private ownedCourses;\r\n    mapping(uint256 => bytes32) private ownedCourseHash;\r\n\r\n    uint256 private totalOwnedCourses;\r\n\r\n    // Course already has an owner!\r\n    error CourseHasOwner();\r\n\r\n    // Course already has an admin!\r\n    error OnlyOwner();\r\n\r\n    modifier onlyOwner() {\r\n        if (msg.sender != getContractOwner()) {\r\n            revert OnlyOwner();\r\n        }\r\n        _;\r\n    }\r\n\r\n    function purchaseCourse(bytes16 courseId, bytes32 proof) external payable {\r\n        bytes32 courseHash = keccak256(abi.encodePacked(courseId, msg.sender));\r\n\r\n        if (hasCourseOwnership(courseHash)) {\r\n            revert CourseHasOwner();\r\n        }\r\n\r\n        uint256 id = totalOwnedCourses++;\r\n\r\n        ownedCourseHash[id] = courseHash;\r\n        ownedCourses[courseHash] = Course({\r\n            id: id,\r\n            price: msg.value,\r\n            proof: proof,\r\n            owner: msg.sender,\r\n            state: State.Purchased\r\n        });\r\n    }\r\n\r\n    function transferOwnership(address newOwner)\r\n        external\r\n        onlyOwner\r\n        returns (address)\r\n    {\r\n        setContractOwner(newOwner);\r\n    }\r\n\r\n    function getCourseCount() external view returns (uint256) {\r\n        return totalOwnedCourses;\r\n    }\r\n\r\n    function getCourseHashAtIndex(uint256 index)\r\n        external\r\n        view\r\n        returns (bytes32)\r\n    {\r\n        return ownedCourseHash[index];\r\n    }\r\n\r\n    function getCourseByHash(bytes32 courseHash)\r\n        external\r\n        view\r\n        returns (Course memory)\r\n    {\r\n        return ownedCourses[courseHash];\r\n    }\r\n\r\n    function setContractOwner(address newOwner) private {\r\n        admin = payable(newOwner);\r\n    }\r\n\r\n    function getContractOwner() public view returns (address) {\r\n        return admin;\r\n    }\r\n\r\n    function hasCourseOwnership(bytes32 courseHash)\r\n        private\r\n        view\r\n        returns (bool)\r\n    {\r\n        return ownedCourses[courseHash].owner == msg.sender;\r\n    }\r\n}\r\n\r\n// * 0x0000000000000000000000000000313000000000000000000000000000003130\r\n\r\n// * This will generate a unique hash for the user for each course. Can't purchase twice\r\n\r\n//* Mapping the courseHash to course data and id to the course hash generated\r\n",
  "sourcePath": "D:\\Solidity and Ethereum\\MarketPlace\\smartContracts\\contracts\\CourseMarketplace.sol",
  "compiler": {
    "name": "solc",
    "version": "0.8.17+commit.8df45f5f.Emscripten.clang"
  },
  "schemaVersion": "3.4.11",
  "updatedAt": "2023-02-06T07:30:56.181Z",
  "networkType": "ethereum",
  "devdoc": {
    "kind": "dev",
    "methods": {},
    "version": 1
  },
  "userdoc": {
    "kind": "user",
    "methods": {},
    "version": 1
  }
}